{
	"First_Dapp.sol": {
		"First_Dapp": {
			"abi": [
				{
					"inputs": [],
					"stateMutability": "payable",
					"type": "constructor"
				},
				{
					"inputs": [],
					"name": "deceased",
					"outputs": [
						{
							"internalType": "bool",
							"name": "",
							"type": "bool"
						}
					],
					"stateMutability": "view",
					"type": "function"
				},
				{
					"inputs": [
						{
							"internalType": "uint256",
							"name": "",
							"type": "uint256"
						}
					],
					"name": "familyWallets",
					"outputs": [
						{
							"internalType": "address payable",
							"name": "",
							"type": "address"
						}
					],
					"stateMutability": "view",
					"type": "function"
				},
				{
					"inputs": [],
					"name": "fortune",
					"outputs": [
						{
							"internalType": "uint256",
							"name": "",
							"type": "uint256"
						}
					],
					"stateMutability": "view",
					"type": "function"
				},
				{
					"inputs": [
						{
							"internalType": "address",
							"name": "_address",
							"type": "address"
						}
					],
					"name": "getInheritance",
					"outputs": [
						{
							"internalType": "uint256",
							"name": "",
							"type": "uint256"
						}
					],
					"stateMutability": "view",
					"type": "function"
				},
				{
					"inputs": [
						{
							"internalType": "address",
							"name": "",
							"type": "address"
						}
					],
					"name": "inheritance",
					"outputs": [
						{
							"internalType": "uint256",
							"name": "",
							"type": "uint256"
						}
					],
					"stateMutability": "view",
					"type": "function"
				},
				{
					"inputs": [],
					"name": "owner",
					"outputs": [
						{
							"internalType": "address",
							"name": "",
							"type": "address"
						}
					],
					"stateMutability": "view",
					"type": "function"
				},
				{
					"inputs": [
						{
							"internalType": "address payable",
							"name": "_address",
							"type": "address"
						},
						{
							"internalType": "uint256",
							"name": "amount",
							"type": "uint256"
						}
					],
					"name": "setInheritance",
					"outputs": [],
					"stateMutability": "nonpayable",
					"type": "function"
				}
			],
			"devdoc": {
				"kind": "dev",
				"methods": {},
				"version": 1
			},
			"evm": {
				"assembly": "    /* \"First_Dapp.sol\":61:1581  contract First_Dapp {... */\n  mstore(0x40, 0x80)\n    /* \"First_Dapp.sol\":221:231  msg.sender */\n  caller\n    /* \"First_Dapp.sol\":213:218  owner */\n  0x00\n  dup1\n    /* \"First_Dapp.sol\":213:231  owner = msg.sender */\n  0x0100\n  exp\n  dup2\n  sload\n  dup2\n  0xffffffffffffffffffffffffffffffffffffffff\n  mul\n  not\n  and\n  swap1\n  dup4\n  0xffffffffffffffffffffffffffffffffffffffff\n  and\n  mul\n  or\n  swap1\n  sstore\n  pop\n    /* \"First_Dapp.sol\":310:319  msg.value */\n  callvalue\n    /* \"First_Dapp.sol\":300:307  fortune */\n  0x01\n    /* \"First_Dapp.sol\":300:319  fortune = msg.value */\n  dup2\n  swap1\n  sstore\n  pop\n    /* \"First_Dapp.sol\":405:410  false */\n  0x00\n    /* \"First_Dapp.sol\":394:402  deceased */\n  0x02\n  0x00\n    /* \"First_Dapp.sol\":394:410  deceased = false */\n  0x0100\n  exp\n  dup2\n  sload\n  dup2\n  0xff\n  mul\n  not\n  and\n  swap1\n  dup4\n  iszero\n  iszero\n  mul\n  or\n  swap1\n  sstore\n  pop\n    /* \"First_Dapp.sol\":61:1581  contract First_Dapp {... */\n  dataSize(sub_0)\n  dup1\n  dataOffset(sub_0)\n  0x00\n  codecopy\n  0x00\n  return\nstop\n\nsub_0: assembly {\n        /* \"First_Dapp.sol\":61:1581  contract First_Dapp {... */\n      mstore(0x40, 0x80)\n      callvalue\n      dup1\n      iszero\n      tag_1\n      jumpi\n      0x00\n      dup1\n      revert\n    tag_1:\n      pop\n      jumpi(tag_2, lt(calldatasize, 0x04))\n      shr(0xe0, calldataload(0x00))\n      dup1\n      0x88d51594\n      gt\n      tag_10\n      jumpi\n      dup1\n      0x88d51594\n      eq\n      tag_6\n      jumpi\n      dup1\n      0x8da5cb5b\n      eq\n      tag_7\n      jumpi\n      dup1\n      0x8daad257\n      eq\n      tag_8\n      jumpi\n      dup1\n      0xf2d3d001\n      eq\n      tag_9\n      jumpi\n      jump(tag_2)\n    tag_10:\n      dup1\n      0x177de89c\n      eq\n      tag_3\n      jumpi\n      dup1\n      0x6eb4149c\n      eq\n      tag_4\n      jumpi\n      dup1\n      0x72faf2d9\n      eq\n      tag_5\n      jumpi\n    tag_2:\n      0x00\n      dup1\n      revert\n        /* \"First_Dapp.sol\":115:137  uint256 public fortune */\n    tag_3:\n      tag_11\n      tag_12\n      jump\t// in\n    tag_11:\n      mload(0x40)\n      tag_13\n      swap2\n      swap1\n      tag_14\n      jump\t// in\n    tag_13:\n      mload(0x40)\n      dup1\n      swap2\n      sub\n      swap1\n      return\n        /* \"First_Dapp.sol\":1449:1568  function getInheritance(address _address) public view returns (uint256) {... */\n    tag_4:\n      tag_15\n      0x04\n      dup1\n      calldatasize\n      sub\n      dup2\n      add\n      swap1\n      tag_16\n      swap2\n      swap1\n      tag_17\n      jump\t// in\n    tag_16:\n      tag_18\n      jump\t// in\n    tag_15:\n      mload(0x40)\n      tag_19\n      swap2\n      swap1\n      tag_14\n      jump\t// in\n    tag_19:\n      mload(0x40)\n      dup1\n      swap2\n      sub\n      swap1\n      return\n        /* \"First_Dapp.sol\":144:164  bool public deceased */\n    tag_5:\n      tag_20\n      tag_21\n      jump\t// in\n    tag_20:\n      mload(0x40)\n      tag_22\n      swap2\n      swap1\n      tag_23\n      jump\t// in\n    tag_22:\n      mload(0x40)\n      dup1\n      swap2\n      sub\n      swap1\n      return\n        /* \"First_Dapp.sol\":971:1142  function setInheritance(address payable _address, uint256 amount) public onlyOwner {... */\n    tag_6:\n      tag_24\n      0x04\n      dup1\n      calldatasize\n      sub\n      dup2\n      add\n      swap1\n      tag_25\n      swap2\n      swap1\n      tag_26\n      jump\t// in\n    tag_25:\n      tag_27\n      jump\t// in\n    tag_24:\n      stop\n        /* \"First_Dapp.sol\":88:108  address public owner */\n    tag_7:\n      tag_28\n      tag_29\n      jump\t// in\n    tag_28:\n      mload(0x40)\n      tag_30\n      swap2\n      swap1\n      tag_31\n      jump\t// in\n    tag_30:\n      mload(0x40)\n      dup1\n      swap2\n      sub\n      swap1\n      return\n        /* \"First_Dapp.sol\":877:923  mapping(address => uint256) public inheritance */\n    tag_8:\n      tag_32\n      0x04\n      dup1\n      calldatasize\n      sub\n      dup2\n      add\n      swap1\n      tag_33\n      swap2\n      swap1\n      tag_17\n      jump\t// in\n    tag_33:\n      tag_34\n      jump\t// in\n    tag_32:\n      mload(0x40)\n      tag_35\n      swap2\n      swap1\n      tag_14\n      jump\t// in\n    tag_35:\n      mload(0x40)\n      dup1\n      swap2\n      sub\n      swap1\n      return\n        /* \"First_Dapp.sol\":773:811  address payable[] public familyWallets */\n    tag_9:\n      tag_36\n      0x04\n      dup1\n      calldatasize\n      sub\n      dup2\n      add\n      swap1\n      tag_37\n      swap2\n      swap1\n      tag_38\n      jump\t// in\n    tag_37:\n      tag_39\n      jump\t// in\n    tag_36:\n      mload(0x40)\n      tag_40\n      swap2\n      swap1\n      tag_41\n      jump\t// in\n    tag_40:\n      mload(0x40)\n      dup1\n      swap2\n      sub\n      swap1\n      return\n        /* \"First_Dapp.sol\":115:137  uint256 public fortune */\n    tag_12:\n      sload(0x01)\n      dup2\n      jump\t// out\n        /* \"First_Dapp.sol\":1449:1568  function getInheritance(address _address) public view returns (uint256) {... */\n    tag_18:\n        /* \"First_Dapp.sol\":1512:1519  uint256 */\n      0x00\n        /* \"First_Dapp.sol\":1539:1550  inheritance */\n      0x04\n        /* \"First_Dapp.sol\":1539:1560  inheritance[_address] */\n      0x00\n        /* \"First_Dapp.sol\":1551:1559  _address */\n      dup4\n        /* \"First_Dapp.sol\":1539:1560  inheritance[_address] */\n      0xffffffffffffffffffffffffffffffffffffffff\n      and\n      0xffffffffffffffffffffffffffffffffffffffff\n      and\n      dup2\n      mstore\n      0x20\n      add\n      swap1\n      dup2\n      mstore\n      0x20\n      add\n      0x00\n      keccak256\n      sload\n        /* \"First_Dapp.sol\":1532:1560  return inheritance[_address] */\n      swap1\n      pop\n        /* \"First_Dapp.sol\":1449:1568  function getInheritance(address _address) public view returns (uint256) {... */\n      swap2\n      swap1\n      pop\n      jump\t// out\n        /* \"First_Dapp.sol\":144:164  bool public deceased */\n    tag_21:\n      0x02\n      0x00\n      swap1\n      sload\n      swap1\n      0x0100\n      exp\n      swap1\n      div\n      0xff\n      and\n      dup2\n      jump\t// out\n        /* \"First_Dapp.sol\":971:1142  function setInheritance(address payable _address, uint256 amount) public onlyOwner {... */\n    tag_27:\n        /* \"First_Dapp.sol\":548:553  owner */\n      0x00\n      dup1\n      sload\n      swap1\n      0x0100\n      exp\n      swap1\n      div\n      0xffffffffffffffffffffffffffffffffffffffff\n      and\n        /* \"First_Dapp.sol\":534:553  msg.sender == owner */\n      0xffffffffffffffffffffffffffffffffffffffff\n      and\n        /* \"First_Dapp.sol\":534:544  msg.sender */\n      caller\n        /* \"First_Dapp.sol\":534:553  msg.sender == owner */\n      0xffffffffffffffffffffffffffffffffffffffff\n      and\n      eq\n        /* \"First_Dapp.sol\":526:554  require(msg.sender == owner) */\n      tag_44\n      jumpi\n      0x00\n      dup1\n      revert\n    tag_44:\n        /* \"First_Dapp.sol\":1065:1078  familyWallets */\n      0x03\n        /* \"First_Dapp.sol\":1084:1092  _address */\n      dup3\n        /* \"First_Dapp.sol\":1065:1093  familyWallets.push(_address) */\n      swap1\n      dup1\n      0x01\n      dup2\n      sload\n      add\n      dup1\n      dup3\n      sstore\n      dup1\n      swap2\n      pop\n      pop\n      0x01\n      swap1\n      sub\n      swap1\n      0x00\n      mstore\n      keccak256(0x00, 0x20)\n      add\n      0x00\n      swap1\n      swap2\n      swap1\n      swap2\n      swap1\n      swap2\n      0x0100\n      exp\n      dup2\n      sload\n      dup2\n      0xffffffffffffffffffffffffffffffffffffffff\n      mul\n      not\n      and\n      swap1\n      dup4\n      0xffffffffffffffffffffffffffffffffffffffff\n      and\n      mul\n      or\n      swap1\n      sstore\n      pop\n        /* \"First_Dapp.sol\":1128:1134  amount */\n      dup1\n        /* \"First_Dapp.sol\":1104:1115  inheritance */\n      0x04\n        /* \"First_Dapp.sol\":1104:1125  inheritance[_address] */\n      0x00\n        /* \"First_Dapp.sol\":1116:1124  _address */\n      dup5\n        /* \"First_Dapp.sol\":1104:1125  inheritance[_address] */\n      0xffffffffffffffffffffffffffffffffffffffff\n      and\n      0xffffffffffffffffffffffffffffffffffffffff\n      and\n      dup2\n      mstore\n      0x20\n      add\n      swap1\n      dup2\n      mstore\n      0x20\n      add\n      0x00\n      keccak256\n        /* \"First_Dapp.sol\":1104:1134  inheritance[_address] = amount */\n      dup2\n      swap1\n      sstore\n      pop\n        /* \"First_Dapp.sol\":971:1142  function setInheritance(address payable _address, uint256 amount) public onlyOwner {... */\n      pop\n      pop\n      jump\t// out\n        /* \"First_Dapp.sol\":88:108  address public owner */\n    tag_29:\n      0x00\n      dup1\n      sload\n      swap1\n      0x0100\n      exp\n      swap1\n      div\n      0xffffffffffffffffffffffffffffffffffffffff\n      and\n      dup2\n      jump\t// out\n        /* \"First_Dapp.sol\":877:923  mapping(address => uint256) public inheritance */\n    tag_34:\n      mstore(0x20, 0x04)\n      dup1\n      0x00\n      mstore\n      keccak256(0x00, 0x40)\n      0x00\n      swap2\n      pop\n      swap1\n      pop\n      sload\n      dup2\n      jump\t// out\n        /* \"First_Dapp.sol\":773:811  address payable[] public familyWallets */\n    tag_39:\n      0x03\n      dup2\n      dup2\n      sload\n      dup2\n      lt\n      tag_47\n      jumpi\n      0x00\n      dup1\n      revert\n    tag_47:\n      swap1\n      0x00\n      mstore\n      keccak256(0x00, 0x20)\n      add\n      0x00\n      swap2\n      pop\n      sload\n      swap1\n      0x0100\n      exp\n      swap1\n      div\n      0xffffffffffffffffffffffffffffffffffffffff\n      and\n      dup2\n      jump\t// out\n        /* \"#utility.yul\":7:84   */\n    tag_49:\n        /* \"#utility.yul\":44:51   */\n      0x00\n        /* \"#utility.yul\":73:78   */\n      dup2\n        /* \"#utility.yul\":62:78   */\n      swap1\n      pop\n        /* \"#utility.yul\":7:84   */\n      swap2\n      swap1\n      pop\n      jump\t// out\n        /* \"#utility.yul\":90:208   */\n    tag_50:\n        /* \"#utility.yul\":177:201   */\n      tag_70\n        /* \"#utility.yul\":195:200   */\n      dup2\n        /* \"#utility.yul\":177:201   */\n      tag_49\n      jump\t// in\n    tag_70:\n        /* \"#utility.yul\":172:175   */\n      dup3\n        /* \"#utility.yul\":165:202   */\n      mstore\n        /* \"#utility.yul\":90:208   */\n      pop\n      pop\n      jump\t// out\n        /* \"#utility.yul\":214:436   */\n    tag_14:\n        /* \"#utility.yul\":307:311   */\n      0x00\n        /* \"#utility.yul\":345:347   */\n      0x20\n        /* \"#utility.yul\":334:343   */\n      dup3\n        /* \"#utility.yul\":330:348   */\n      add\n        /* \"#utility.yul\":322:348   */\n      swap1\n      pop\n        /* \"#utility.yul\":358:429   */\n      tag_72\n        /* \"#utility.yul\":426:427   */\n      0x00\n        /* \"#utility.yul\":415:424   */\n      dup4\n        /* \"#utility.yul\":411:428   */\n      add\n        /* \"#utility.yul\":402:408   */\n      dup5\n        /* \"#utility.yul\":358:429   */\n      tag_50\n      jump\t// in\n    tag_72:\n        /* \"#utility.yul\":214:436   */\n      swap3\n      swap2\n      pop\n      pop\n      jump\t// out\n        /* \"#utility.yul\":523:640   */\n    tag_52:\n        /* \"#utility.yul\":632:633   */\n      0x00\n        /* \"#utility.yul\":629:630   */\n      dup1\n        /* \"#utility.yul\":622:634   */\n      revert\n        /* \"#utility.yul\":769:895   */\n    tag_54:\n        /* \"#utility.yul\":806:813   */\n      0x00\n        /* \"#utility.yul\":846:888   */\n      0xffffffffffffffffffffffffffffffffffffffff\n        /* \"#utility.yul\":839:844   */\n      dup3\n        /* \"#utility.yul\":835:889   */\n      and\n        /* \"#utility.yul\":824:889   */\n      swap1\n      pop\n        /* \"#utility.yul\":769:895   */\n      swap2\n      swap1\n      pop\n      jump\t// out\n        /* \"#utility.yul\":901:997   */\n    tag_55:\n        /* \"#utility.yul\":938:945   */\n      0x00\n        /* \"#utility.yul\":967:991   */\n      tag_78\n        /* \"#utility.yul\":985:990   */\n      dup3\n        /* \"#utility.yul\":967:991   */\n      tag_54\n      jump\t// in\n    tag_78:\n        /* \"#utility.yul\":956:991   */\n      swap1\n      pop\n        /* \"#utility.yul\":901:997   */\n      swap2\n      swap1\n      pop\n      jump\t// out\n        /* \"#utility.yul\":1003:1125   */\n    tag_56:\n        /* \"#utility.yul\":1076:1100   */\n      tag_80\n        /* \"#utility.yul\":1094:1099   */\n      dup2\n        /* \"#utility.yul\":1076:1100   */\n      tag_55\n      jump\t// in\n    tag_80:\n        /* \"#utility.yul\":1069:1074   */\n      dup2\n        /* \"#utility.yul\":1066:1101   */\n      eq\n        /* \"#utility.yul\":1056:1119   */\n      tag_81\n      jumpi\n        /* \"#utility.yul\":1115:1116   */\n      0x00\n        /* \"#utility.yul\":1112:1113   */\n      dup1\n        /* \"#utility.yul\":1105:1117   */\n      revert\n        /* \"#utility.yul\":1056:1119   */\n    tag_81:\n        /* \"#utility.yul\":1003:1125   */\n      pop\n      jump\t// out\n        /* \"#utility.yul\":1131:1270   */\n    tag_57:\n        /* \"#utility.yul\":1177:1182   */\n      0x00\n        /* \"#utility.yul\":1215:1221   */\n      dup2\n        /* \"#utility.yul\":1202:1222   */\n      calldataload\n        /* \"#utility.yul\":1193:1222   */\n      swap1\n      pop\n        /* \"#utility.yul\":1231:1264   */\n      tag_83\n        /* \"#utility.yul\":1258:1263   */\n      dup2\n        /* \"#utility.yul\":1231:1264   */\n      tag_56\n      jump\t// in\n    tag_83:\n        /* \"#utility.yul\":1131:1270   */\n      swap3\n      swap2\n      pop\n      pop\n      jump\t// out\n        /* \"#utility.yul\":1276:1605   */\n    tag_17:\n        /* \"#utility.yul\":1335:1341   */\n      0x00\n        /* \"#utility.yul\":1384:1386   */\n      0x20\n        /* \"#utility.yul\":1372:1381   */\n      dup3\n        /* \"#utility.yul\":1363:1370   */\n      dup5\n        /* \"#utility.yul\":1359:1382   */\n      sub\n        /* \"#utility.yul\":1355:1387   */\n      slt\n        /* \"#utility.yul\":1352:1471   */\n      iszero\n      tag_85\n      jumpi\n        /* \"#utility.yul\":1390:1469   */\n      tag_86\n      tag_52\n      jump\t// in\n    tag_86:\n        /* \"#utility.yul\":1352:1471   */\n    tag_85:\n        /* \"#utility.yul\":1510:1511   */\n      0x00\n        /* \"#utility.yul\":1535:1588   */\n      tag_87\n        /* \"#utility.yul\":1580:1587   */\n      dup5\n        /* \"#utility.yul\":1571:1577   */\n      dup3\n        /* \"#utility.yul\":1560:1569   */\n      dup6\n        /* \"#utility.yul\":1556:1578   */\n      add\n        /* \"#utility.yul\":1535:1588   */\n      tag_57\n      jump\t// in\n    tag_87:\n        /* \"#utility.yul\":1525:1588   */\n      swap2\n      pop\n        /* \"#utility.yul\":1481:1598   */\n      pop\n        /* \"#utility.yul\":1276:1605   */\n      swap3\n      swap2\n      pop\n      pop\n      jump\t// out\n        /* \"#utility.yul\":1611:1701   */\n    tag_58:\n        /* \"#utility.yul\":1645:1652   */\n      0x00\n        /* \"#utility.yul\":1688:1693   */\n      dup2\n        /* \"#utility.yul\":1681:1694   */\n      iszero\n        /* \"#utility.yul\":1674:1695   */\n      iszero\n        /* \"#utility.yul\":1663:1695   */\n      swap1\n      pop\n        /* \"#utility.yul\":1611:1701   */\n      swap2\n      swap1\n      pop\n      jump\t// out\n        /* \"#utility.yul\":1707:1816   */\n    tag_59:\n        /* \"#utility.yul\":1788:1809   */\n      tag_90\n        /* \"#utility.yul\":1803:1808   */\n      dup2\n        /* \"#utility.yul\":1788:1809   */\n      tag_58\n      jump\t// in\n    tag_90:\n        /* \"#utility.yul\":1783:1786   */\n      dup3\n        /* \"#utility.yul\":1776:1810   */\n      mstore\n        /* \"#utility.yul\":1707:1816   */\n      pop\n      pop\n      jump\t// out\n        /* \"#utility.yul\":1822:2032   */\n    tag_23:\n        /* \"#utility.yul\":1909:1913   */\n      0x00\n        /* \"#utility.yul\":1947:1949   */\n      0x20\n        /* \"#utility.yul\":1936:1945   */\n      dup3\n        /* \"#utility.yul\":1932:1950   */\n      add\n        /* \"#utility.yul\":1924:1950   */\n      swap1\n      pop\n        /* \"#utility.yul\":1960:2025   */\n      tag_92\n        /* \"#utility.yul\":2022:2023   */\n      0x00\n        /* \"#utility.yul\":2011:2020   */\n      dup4\n        /* \"#utility.yul\":2007:2024   */\n      add\n        /* \"#utility.yul\":1998:2004   */\n      dup5\n        /* \"#utility.yul\":1960:2025   */\n      tag_59\n      jump\t// in\n    tag_92:\n        /* \"#utility.yul\":1822:2032   */\n      swap3\n      swap2\n      pop\n      pop\n      jump\t// out\n        /* \"#utility.yul\":2038:2142   */\n    tag_60:\n        /* \"#utility.yul\":2083:2090   */\n      0x00\n        /* \"#utility.yul\":2112:2136   */\n      tag_94\n        /* \"#utility.yul\":2130:2135   */\n      dup3\n        /* \"#utility.yul\":2112:2136   */\n      tag_54\n      jump\t// in\n    tag_94:\n        /* \"#utility.yul\":2101:2136   */\n      swap1\n      pop\n        /* \"#utility.yul\":2038:2142   */\n      swap2\n      swap1\n      pop\n      jump\t// out\n        /* \"#utility.yul\":2148:2286   */\n    tag_61:\n        /* \"#utility.yul\":2229:2261   */\n      tag_96\n        /* \"#utility.yul\":2255:2260   */\n      dup2\n        /* \"#utility.yul\":2229:2261   */\n      tag_60\n      jump\t// in\n    tag_96:\n        /* \"#utility.yul\":2222:2227   */\n      dup2\n        /* \"#utility.yul\":2219:2262   */\n      eq\n        /* \"#utility.yul\":2209:2280   */\n      tag_97\n      jumpi\n        /* \"#utility.yul\":2276:2277   */\n      0x00\n        /* \"#utility.yul\":2273:2274   */\n      dup1\n        /* \"#utility.yul\":2266:2278   */\n      revert\n        /* \"#utility.yul\":2209:2280   */\n    tag_97:\n        /* \"#utility.yul\":2148:2286   */\n      pop\n      jump\t// out\n        /* \"#utility.yul\":2292:2447   */\n    tag_62:\n        /* \"#utility.yul\":2346:2351   */\n      0x00\n        /* \"#utility.yul\":2384:2390   */\n      dup2\n        /* \"#utility.yul\":2371:2391   */\n      calldataload\n        /* \"#utility.yul\":2362:2391   */\n      swap1\n      pop\n        /* \"#utility.yul\":2400:2441   */\n      tag_99\n        /* \"#utility.yul\":2435:2440   */\n      dup2\n        /* \"#utility.yul\":2400:2441   */\n      tag_61\n      jump\t// in\n    tag_99:\n        /* \"#utility.yul\":2292:2447   */\n      swap3\n      swap2\n      pop\n      pop\n      jump\t// out\n        /* \"#utility.yul\":2453:2575   */\n    tag_63:\n        /* \"#utility.yul\":2526:2550   */\n      tag_101\n        /* \"#utility.yul\":2544:2549   */\n      dup2\n        /* \"#utility.yul\":2526:2550   */\n      tag_49\n      jump\t// in\n    tag_101:\n        /* \"#utility.yul\":2519:2524   */\n      dup2\n        /* \"#utility.yul\":2516:2551   */\n      eq\n        /* \"#utility.yul\":2506:2569   */\n      tag_102\n      jumpi\n        /* \"#utility.yul\":2565:2566   */\n      0x00\n        /* \"#utility.yul\":2562:2563   */\n      dup1\n        /* \"#utility.yul\":2555:2567   */\n      revert\n        /* \"#utility.yul\":2506:2569   */\n    tag_102:\n        /* \"#utility.yul\":2453:2575   */\n      pop\n      jump\t// out\n        /* \"#utility.yul\":2581:2720   */\n    tag_64:\n        /* \"#utility.yul\":2627:2632   */\n      0x00\n        /* \"#utility.yul\":2665:2671   */\n      dup2\n        /* \"#utility.yul\":2652:2672   */\n      calldataload\n        /* \"#utility.yul\":2643:2672   */\n      swap1\n      pop\n        /* \"#utility.yul\":2681:2714   */\n      tag_104\n        /* \"#utility.yul\":2708:2713   */\n      dup2\n        /* \"#utility.yul\":2681:2714   */\n      tag_63\n      jump\t// in\n    tag_104:\n        /* \"#utility.yul\":2581:2720   */\n      swap3\n      swap2\n      pop\n      pop\n      jump\t// out\n        /* \"#utility.yul\":2726:3216   */\n    tag_26:\n        /* \"#utility.yul\":2802:2808   */\n      0x00\n        /* \"#utility.yul\":2810:2816   */\n      dup1\n        /* \"#utility.yul\":2859:2861   */\n      0x40\n        /* \"#utility.yul\":2847:2856   */\n      dup4\n        /* \"#utility.yul\":2838:2845   */\n      dup6\n        /* \"#utility.yul\":2834:2857   */\n      sub\n        /* \"#utility.yul\":2830:2862   */\n      slt\n        /* \"#utility.yul\":2827:2946   */\n      iszero\n      tag_106\n      jumpi\n        /* \"#utility.yul\":2865:2944   */\n      tag_107\n      tag_52\n      jump\t// in\n    tag_107:\n        /* \"#utility.yul\":2827:2946   */\n    tag_106:\n        /* \"#utility.yul\":2985:2986   */\n      0x00\n        /* \"#utility.yul\":3010:3071   */\n      tag_108\n        /* \"#utility.yul\":3063:3070   */\n      dup6\n        /* \"#utility.yul\":3054:3060   */\n      dup3\n        /* \"#utility.yul\":3043:3052   */\n      dup7\n        /* \"#utility.yul\":3039:3061   */\n      add\n        /* \"#utility.yul\":3010:3071   */\n      tag_62\n      jump\t// in\n    tag_108:\n        /* \"#utility.yul\":3000:3071   */\n      swap3\n      pop\n        /* \"#utility.yul\":2956:3081   */\n      pop\n        /* \"#utility.yul\":3120:3122   */\n      0x20\n        /* \"#utility.yul\":3146:3199   */\n      tag_109\n        /* \"#utility.yul\":3191:3198   */\n      dup6\n        /* \"#utility.yul\":3182:3188   */\n      dup3\n        /* \"#utility.yul\":3171:3180   */\n      dup7\n        /* \"#utility.yul\":3167:3189   */\n      add\n        /* \"#utility.yul\":3146:3199   */\n      tag_64\n      jump\t// in\n    tag_109:\n        /* \"#utility.yul\":3136:3199   */\n      swap2\n      pop\n        /* \"#utility.yul\":3091:3209   */\n      pop\n        /* \"#utility.yul\":2726:3216   */\n      swap3\n      pop\n      swap3\n      swap1\n      pop\n      jump\t// out\n        /* \"#utility.yul\":3222:3340   */\n    tag_65:\n        /* \"#utility.yul\":3309:3333   */\n      tag_111\n        /* \"#utility.yul\":3327:3332   */\n      dup2\n        /* \"#utility.yul\":3309:3333   */\n      tag_55\n      jump\t// in\n    tag_111:\n        /* \"#utility.yul\":3304:3307   */\n      dup3\n        /* \"#utility.yul\":3297:3334   */\n      mstore\n        /* \"#utility.yul\":3222:3340   */\n      pop\n      pop\n      jump\t// out\n        /* \"#utility.yul\":3346:3568   */\n    tag_31:\n        /* \"#utility.yul\":3439:3443   */\n      0x00\n        /* \"#utility.yul\":3477:3479   */\n      0x20\n        /* \"#utility.yul\":3466:3475   */\n      dup3\n        /* \"#utility.yul\":3462:3480   */\n      add\n        /* \"#utility.yul\":3454:3480   */\n      swap1\n      pop\n        /* \"#utility.yul\":3490:3561   */\n      tag_113\n        /* \"#utility.yul\":3558:3559   */\n      0x00\n        /* \"#utility.yul\":3547:3556   */\n      dup4\n        /* \"#utility.yul\":3543:3560   */\n      add\n        /* \"#utility.yul\":3534:3540   */\n      dup5\n        /* \"#utility.yul\":3490:3561   */\n      tag_65\n      jump\t// in\n    tag_113:\n        /* \"#utility.yul\":3346:3568   */\n      swap3\n      swap2\n      pop\n      pop\n      jump\t// out\n        /* \"#utility.yul\":3574:3903   */\n    tag_38:\n        /* \"#utility.yul\":3633:3639   */\n      0x00\n        /* \"#utility.yul\":3682:3684   */\n      0x20\n        /* \"#utility.yul\":3670:3679   */\n      dup3\n        /* \"#utility.yul\":3661:3668   */\n      dup5\n        /* \"#utility.yul\":3657:3680   */\n      sub\n        /* \"#utility.yul\":3653:3685   */\n      slt\n        /* \"#utility.yul\":3650:3769   */\n      iszero\n      tag_115\n      jumpi\n        /* \"#utility.yul\":3688:3767   */\n      tag_116\n      tag_52\n      jump\t// in\n    tag_116:\n        /* \"#utility.yul\":3650:3769   */\n    tag_115:\n        /* \"#utility.yul\":3808:3809   */\n      0x00\n        /* \"#utility.yul\":3833:3886   */\n      tag_117\n        /* \"#utility.yul\":3878:3885   */\n      dup5\n        /* \"#utility.yul\":3869:3875   */\n      dup3\n        /* \"#utility.yul\":3858:3867   */\n      dup6\n        /* \"#utility.yul\":3854:3876   */\n      add\n        /* \"#utility.yul\":3833:3886   */\n      tag_64\n      jump\t// in\n    tag_117:\n        /* \"#utility.yul\":3823:3886   */\n      swap2\n      pop\n        /* \"#utility.yul\":3779:3896   */\n      pop\n        /* \"#utility.yul\":3574:3903   */\n      swap3\n      swap2\n      pop\n      pop\n      jump\t// out\n        /* \"#utility.yul\":3909:4051   */\n    tag_66:\n        /* \"#utility.yul\":4012:4044   */\n      tag_119\n        /* \"#utility.yul\":4038:4043   */\n      dup2\n        /* \"#utility.yul\":4012:4044   */\n      tag_60\n      jump\t// in\n    tag_119:\n        /* \"#utility.yul\":4007:4010   */\n      dup3\n        /* \"#utility.yul\":4000:4045   */\n      mstore\n        /* \"#utility.yul\":3909:4051   */\n      pop\n      pop\n      jump\t// out\n        /* \"#utility.yul\":4057:4311   */\n    tag_41:\n        /* \"#utility.yul\":4166:4170   */\n      0x00\n        /* \"#utility.yul\":4204:4206   */\n      0x20\n        /* \"#utility.yul\":4193:4202   */\n      dup3\n        /* \"#utility.yul\":4189:4207   */\n      add\n        /* \"#utility.yul\":4181:4207   */\n      swap1\n      pop\n        /* \"#utility.yul\":4217:4304   */\n      tag_121\n        /* \"#utility.yul\":4301:4302   */\n      0x00\n        /* \"#utility.yul\":4290:4299   */\n      dup4\n        /* \"#utility.yul\":4286:4303   */\n      add\n        /* \"#utility.yul\":4277:4283   */\n      dup5\n        /* \"#utility.yul\":4217:4304   */\n      tag_66\n      jump\t// in\n    tag_121:\n        /* \"#utility.yul\":4057:4311   */\n      swap3\n      swap2\n      pop\n      pop\n      jump\t// out\n\n    auxdata: 0xa2646970667358221220037163759ba936d2d5e08f212d6a7ea9235a9ac1eb9b7b6ca1931cf53a8893d664736f6c634300080d0033\n}\n",
				"bytecode": {
					"linkReferences": {},
					"object": "6080604052336000806101000a81548173ffffffffffffffffffffffffffffffffffffffff021916908373ffffffffffffffffffffffffffffffffffffffff160217905550346001819055506000600260006101000a81548160ff0219169083151502179055506105c3806100756000396000f3fe608060405234801561001057600080fd5b506004361061007d5760003560e01c806388d515941161005b57806388d51594146100ee5780638da5cb5b1461010a5780638daad25714610128578063f2d3d001146101585761007d565b8063177de89c146100825780636eb4149c146100a057806372faf2d9146100d0575b600080fd5b61008a610188565b6040516100979190610381565b60405180910390f35b6100ba60048036038101906100b591906103ff565b61018e565b6040516100c79190610381565b60405180910390f35b6100d86101d7565b6040516100e59190610447565b60405180910390f35b610108600480360381019061010391906104cc565b6101ea565b005b6101126102ed565b60405161011f919061051b565b60405180910390f35b610142600480360381019061013d91906103ff565b610311565b60405161014f9190610381565b60405180910390f35b610172600480360381019061016d9190610536565b610329565b60405161017f9190610572565b60405180910390f35b60015481565b6000600460008373ffffffffffffffffffffffffffffffffffffffff1673ffffffffffffffffffffffffffffffffffffffff168152602001908152602001600020549050919050565b600260009054906101000a900460ff1681565b60008054906101000a900473ffffffffffffffffffffffffffffffffffffffff1673ffffffffffffffffffffffffffffffffffffffff163373ffffffffffffffffffffffffffffffffffffffff161461024257600080fd5b6003829080600181540180825580915050600190039060005260206000200160009091909190916101000a81548173ffffffffffffffffffffffffffffffffffffffff021916908373ffffffffffffffffffffffffffffffffffffffff16021790555080600460008473ffffffffffffffffffffffffffffffffffffffff1673ffffffffffffffffffffffffffffffffffffffff168152602001908152602001600020819055505050565b60008054906101000a900473ffffffffffffffffffffffffffffffffffffffff1681565b60046020528060005260406000206000915090505481565b6003818154811061033957600080fd5b906000526020600020016000915054906101000a900473ffffffffffffffffffffffffffffffffffffffff1681565b6000819050919050565b61037b81610368565b82525050565b60006020820190506103966000830184610372565b92915050565b600080fd5b600073ffffffffffffffffffffffffffffffffffffffff82169050919050565b60006103cc826103a1565b9050919050565b6103dc816103c1565b81146103e757600080fd5b50565b6000813590506103f9816103d3565b92915050565b6000602082840312156104155761041461039c565b5b6000610423848285016103ea565b91505092915050565b60008115159050919050565b6104418161042c565b82525050565b600060208201905061045c6000830184610438565b92915050565b600061046d826103a1565b9050919050565b61047d81610462565b811461048857600080fd5b50565b60008135905061049a81610474565b92915050565b6104a981610368565b81146104b457600080fd5b50565b6000813590506104c6816104a0565b92915050565b600080604083850312156104e3576104e261039c565b5b60006104f18582860161048b565b9250506020610502858286016104b7565b9150509250929050565b610515816103c1565b82525050565b6000602082019050610530600083018461050c565b92915050565b60006020828403121561054c5761054b61039c565b5b600061055a848285016104b7565b91505092915050565b61056c81610462565b82525050565b60006020820190506105876000830184610563565b9291505056fea2646970667358221220037163759ba936d2d5e08f212d6a7ea9235a9ac1eb9b7b6ca1931cf53a8893d664736f6c634300080d0033",
					"opcodes": "PUSH1 0x80 PUSH1 0x40 MSTORE CALLER PUSH1 0x0 DUP1 PUSH2 0x100 EXP DUP2 SLOAD DUP2 PUSH20 0xFFFFFFFFFFFFFFFFFFFFFFFFFFFFFFFFFFFFFFFF MUL NOT AND SWAP1 DUP4 PUSH20 0xFFFFFFFFFFFFFFFFFFFFFFFFFFFFFFFFFFFFFFFF AND MUL OR SWAP1 SSTORE POP CALLVALUE PUSH1 0x1 DUP2 SWAP1 SSTORE POP PUSH1 0x0 PUSH1 0x2 PUSH1 0x0 PUSH2 0x100 EXP DUP2 SLOAD DUP2 PUSH1 0xFF MUL NOT AND SWAP1 DUP4 ISZERO ISZERO MUL OR SWAP1 SSTORE POP PUSH2 0x5C3 DUP1 PUSH2 0x75 PUSH1 0x0 CODECOPY PUSH1 0x0 RETURN INVALID PUSH1 0x80 PUSH1 0x40 MSTORE CALLVALUE DUP1 ISZERO PUSH2 0x10 JUMPI PUSH1 0x0 DUP1 REVERT JUMPDEST POP PUSH1 0x4 CALLDATASIZE LT PUSH2 0x7D JUMPI PUSH1 0x0 CALLDATALOAD PUSH1 0xE0 SHR DUP1 PUSH4 0x88D51594 GT PUSH2 0x5B JUMPI DUP1 PUSH4 0x88D51594 EQ PUSH2 0xEE JUMPI DUP1 PUSH4 0x8DA5CB5B EQ PUSH2 0x10A JUMPI DUP1 PUSH4 0x8DAAD257 EQ PUSH2 0x128 JUMPI DUP1 PUSH4 0xF2D3D001 EQ PUSH2 0x158 JUMPI PUSH2 0x7D JUMP JUMPDEST DUP1 PUSH4 0x177DE89C EQ PUSH2 0x82 JUMPI DUP1 PUSH4 0x6EB4149C EQ PUSH2 0xA0 JUMPI DUP1 PUSH4 0x72FAF2D9 EQ PUSH2 0xD0 JUMPI JUMPDEST PUSH1 0x0 DUP1 REVERT JUMPDEST PUSH2 0x8A PUSH2 0x188 JUMP JUMPDEST PUSH1 0x40 MLOAD PUSH2 0x97 SWAP2 SWAP1 PUSH2 0x381 JUMP JUMPDEST PUSH1 0x40 MLOAD DUP1 SWAP2 SUB SWAP1 RETURN JUMPDEST PUSH2 0xBA PUSH1 0x4 DUP1 CALLDATASIZE SUB DUP2 ADD SWAP1 PUSH2 0xB5 SWAP2 SWAP1 PUSH2 0x3FF JUMP JUMPDEST PUSH2 0x18E JUMP JUMPDEST PUSH1 0x40 MLOAD PUSH2 0xC7 SWAP2 SWAP1 PUSH2 0x381 JUMP JUMPDEST PUSH1 0x40 MLOAD DUP1 SWAP2 SUB SWAP1 RETURN JUMPDEST PUSH2 0xD8 PUSH2 0x1D7 JUMP JUMPDEST PUSH1 0x40 MLOAD PUSH2 0xE5 SWAP2 SWAP1 PUSH2 0x447 JUMP JUMPDEST PUSH1 0x40 MLOAD DUP1 SWAP2 SUB SWAP1 RETURN JUMPDEST PUSH2 0x108 PUSH1 0x4 DUP1 CALLDATASIZE SUB DUP2 ADD SWAP1 PUSH2 0x103 SWAP2 SWAP1 PUSH2 0x4CC JUMP JUMPDEST PUSH2 0x1EA JUMP JUMPDEST STOP JUMPDEST PUSH2 0x112 PUSH2 0x2ED JUMP JUMPDEST PUSH1 0x40 MLOAD PUSH2 0x11F SWAP2 SWAP1 PUSH2 0x51B JUMP JUMPDEST PUSH1 0x40 MLOAD DUP1 SWAP2 SUB SWAP1 RETURN JUMPDEST PUSH2 0x142 PUSH1 0x4 DUP1 CALLDATASIZE SUB DUP2 ADD SWAP1 PUSH2 0x13D SWAP2 SWAP1 PUSH2 0x3FF JUMP JUMPDEST PUSH2 0x311 JUMP JUMPDEST PUSH1 0x40 MLOAD PUSH2 0x14F SWAP2 SWAP1 PUSH2 0x381 JUMP JUMPDEST PUSH1 0x40 MLOAD DUP1 SWAP2 SUB SWAP1 RETURN JUMPDEST PUSH2 0x172 PUSH1 0x4 DUP1 CALLDATASIZE SUB DUP2 ADD SWAP1 PUSH2 0x16D SWAP2 SWAP1 PUSH2 0x536 JUMP JUMPDEST PUSH2 0x329 JUMP JUMPDEST PUSH1 0x40 MLOAD PUSH2 0x17F SWAP2 SWAP1 PUSH2 0x572 JUMP JUMPDEST PUSH1 0x40 MLOAD DUP1 SWAP2 SUB SWAP1 RETURN JUMPDEST PUSH1 0x1 SLOAD DUP2 JUMP JUMPDEST PUSH1 0x0 PUSH1 0x4 PUSH1 0x0 DUP4 PUSH20 0xFFFFFFFFFFFFFFFFFFFFFFFFFFFFFFFFFFFFFFFF AND PUSH20 0xFFFFFFFFFFFFFFFFFFFFFFFFFFFFFFFFFFFFFFFF AND DUP2 MSTORE PUSH1 0x20 ADD SWAP1 DUP2 MSTORE PUSH1 0x20 ADD PUSH1 0x0 KECCAK256 SLOAD SWAP1 POP SWAP2 SWAP1 POP JUMP JUMPDEST PUSH1 0x2 PUSH1 0x0 SWAP1 SLOAD SWAP1 PUSH2 0x100 EXP SWAP1 DIV PUSH1 0xFF AND DUP2 JUMP JUMPDEST PUSH1 0x0 DUP1 SLOAD SWAP1 PUSH2 0x100 EXP SWAP1 DIV PUSH20 0xFFFFFFFFFFFFFFFFFFFFFFFFFFFFFFFFFFFFFFFF AND PUSH20 0xFFFFFFFFFFFFFFFFFFFFFFFFFFFFFFFFFFFFFFFF AND CALLER PUSH20 0xFFFFFFFFFFFFFFFFFFFFFFFFFFFFFFFFFFFFFFFF AND EQ PUSH2 0x242 JUMPI PUSH1 0x0 DUP1 REVERT JUMPDEST PUSH1 0x3 DUP3 SWAP1 DUP1 PUSH1 0x1 DUP2 SLOAD ADD DUP1 DUP3 SSTORE DUP1 SWAP2 POP POP PUSH1 0x1 SWAP1 SUB SWAP1 PUSH1 0x0 MSTORE PUSH1 0x20 PUSH1 0x0 KECCAK256 ADD PUSH1 0x0 SWAP1 SWAP2 SWAP1 SWAP2 SWAP1 SWAP2 PUSH2 0x100 EXP DUP2 SLOAD DUP2 PUSH20 0xFFFFFFFFFFFFFFFFFFFFFFFFFFFFFFFFFFFFFFFF MUL NOT AND SWAP1 DUP4 PUSH20 0xFFFFFFFFFFFFFFFFFFFFFFFFFFFFFFFFFFFFFFFF AND MUL OR SWAP1 SSTORE POP DUP1 PUSH1 0x4 PUSH1 0x0 DUP5 PUSH20 0xFFFFFFFFFFFFFFFFFFFFFFFFFFFFFFFFFFFFFFFF AND PUSH20 0xFFFFFFFFFFFFFFFFFFFFFFFFFFFFFFFFFFFFFFFF AND DUP2 MSTORE PUSH1 0x20 ADD SWAP1 DUP2 MSTORE PUSH1 0x20 ADD PUSH1 0x0 KECCAK256 DUP2 SWAP1 SSTORE POP POP POP JUMP JUMPDEST PUSH1 0x0 DUP1 SLOAD SWAP1 PUSH2 0x100 EXP SWAP1 DIV PUSH20 0xFFFFFFFFFFFFFFFFFFFFFFFFFFFFFFFFFFFFFFFF AND DUP2 JUMP JUMPDEST PUSH1 0x4 PUSH1 0x20 MSTORE DUP1 PUSH1 0x0 MSTORE PUSH1 0x40 PUSH1 0x0 KECCAK256 PUSH1 0x0 SWAP2 POP SWAP1 POP SLOAD DUP2 JUMP JUMPDEST PUSH1 0x3 DUP2 DUP2 SLOAD DUP2 LT PUSH2 0x339 JUMPI PUSH1 0x0 DUP1 REVERT JUMPDEST SWAP1 PUSH1 0x0 MSTORE PUSH1 0x20 PUSH1 0x0 KECCAK256 ADD PUSH1 0x0 SWAP2 POP SLOAD SWAP1 PUSH2 0x100 EXP SWAP1 DIV PUSH20 0xFFFFFFFFFFFFFFFFFFFFFFFFFFFFFFFFFFFFFFFF AND DUP2 JUMP JUMPDEST PUSH1 0x0 DUP2 SWAP1 POP SWAP2 SWAP1 POP JUMP JUMPDEST PUSH2 0x37B DUP2 PUSH2 0x368 JUMP JUMPDEST DUP3 MSTORE POP POP JUMP JUMPDEST PUSH1 0x0 PUSH1 0x20 DUP3 ADD SWAP1 POP PUSH2 0x396 PUSH1 0x0 DUP4 ADD DUP5 PUSH2 0x372 JUMP JUMPDEST SWAP3 SWAP2 POP POP JUMP JUMPDEST PUSH1 0x0 DUP1 REVERT JUMPDEST PUSH1 0x0 PUSH20 0xFFFFFFFFFFFFFFFFFFFFFFFFFFFFFFFFFFFFFFFF DUP3 AND SWAP1 POP SWAP2 SWAP1 POP JUMP JUMPDEST PUSH1 0x0 PUSH2 0x3CC DUP3 PUSH2 0x3A1 JUMP JUMPDEST SWAP1 POP SWAP2 SWAP1 POP JUMP JUMPDEST PUSH2 0x3DC DUP2 PUSH2 0x3C1 JUMP JUMPDEST DUP2 EQ PUSH2 0x3E7 JUMPI PUSH1 0x0 DUP1 REVERT JUMPDEST POP JUMP JUMPDEST PUSH1 0x0 DUP2 CALLDATALOAD SWAP1 POP PUSH2 0x3F9 DUP2 PUSH2 0x3D3 JUMP JUMPDEST SWAP3 SWAP2 POP POP JUMP JUMPDEST PUSH1 0x0 PUSH1 0x20 DUP3 DUP5 SUB SLT ISZERO PUSH2 0x415 JUMPI PUSH2 0x414 PUSH2 0x39C JUMP JUMPDEST JUMPDEST PUSH1 0x0 PUSH2 0x423 DUP5 DUP3 DUP6 ADD PUSH2 0x3EA JUMP JUMPDEST SWAP2 POP POP SWAP3 SWAP2 POP POP JUMP JUMPDEST PUSH1 0x0 DUP2 ISZERO ISZERO SWAP1 POP SWAP2 SWAP1 POP JUMP JUMPDEST PUSH2 0x441 DUP2 PUSH2 0x42C JUMP JUMPDEST DUP3 MSTORE POP POP JUMP JUMPDEST PUSH1 0x0 PUSH1 0x20 DUP3 ADD SWAP1 POP PUSH2 0x45C PUSH1 0x0 DUP4 ADD DUP5 PUSH2 0x438 JUMP JUMPDEST SWAP3 SWAP2 POP POP JUMP JUMPDEST PUSH1 0x0 PUSH2 0x46D DUP3 PUSH2 0x3A1 JUMP JUMPDEST SWAP1 POP SWAP2 SWAP1 POP JUMP JUMPDEST PUSH2 0x47D DUP2 PUSH2 0x462 JUMP JUMPDEST DUP2 EQ PUSH2 0x488 JUMPI PUSH1 0x0 DUP1 REVERT JUMPDEST POP JUMP JUMPDEST PUSH1 0x0 DUP2 CALLDATALOAD SWAP1 POP PUSH2 0x49A DUP2 PUSH2 0x474 JUMP JUMPDEST SWAP3 SWAP2 POP POP JUMP JUMPDEST PUSH2 0x4A9 DUP2 PUSH2 0x368 JUMP JUMPDEST DUP2 EQ PUSH2 0x4B4 JUMPI PUSH1 0x0 DUP1 REVERT JUMPDEST POP JUMP JUMPDEST PUSH1 0x0 DUP2 CALLDATALOAD SWAP1 POP PUSH2 0x4C6 DUP2 PUSH2 0x4A0 JUMP JUMPDEST SWAP3 SWAP2 POP POP JUMP JUMPDEST PUSH1 0x0 DUP1 PUSH1 0x40 DUP4 DUP6 SUB SLT ISZERO PUSH2 0x4E3 JUMPI PUSH2 0x4E2 PUSH2 0x39C JUMP JUMPDEST JUMPDEST PUSH1 0x0 PUSH2 0x4F1 DUP6 DUP3 DUP7 ADD PUSH2 0x48B JUMP JUMPDEST SWAP3 POP POP PUSH1 0x20 PUSH2 0x502 DUP6 DUP3 DUP7 ADD PUSH2 0x4B7 JUMP JUMPDEST SWAP2 POP POP SWAP3 POP SWAP3 SWAP1 POP JUMP JUMPDEST PUSH2 0x515 DUP2 PUSH2 0x3C1 JUMP JUMPDEST DUP3 MSTORE POP POP JUMP JUMPDEST PUSH1 0x0 PUSH1 0x20 DUP3 ADD SWAP1 POP PUSH2 0x530 PUSH1 0x0 DUP4 ADD DUP5 PUSH2 0x50C JUMP JUMPDEST SWAP3 SWAP2 POP POP JUMP JUMPDEST PUSH1 0x0 PUSH1 0x20 DUP3 DUP5 SUB SLT ISZERO PUSH2 0x54C JUMPI PUSH2 0x54B PUSH2 0x39C JUMP JUMPDEST JUMPDEST PUSH1 0x0 PUSH2 0x55A DUP5 DUP3 DUP6 ADD PUSH2 0x4B7 JUMP JUMPDEST SWAP2 POP POP SWAP3 SWAP2 POP POP JUMP JUMPDEST PUSH2 0x56C DUP2 PUSH2 0x462 JUMP JUMPDEST DUP3 MSTORE POP POP JUMP JUMPDEST PUSH1 0x0 PUSH1 0x20 DUP3 ADD SWAP1 POP PUSH2 0x587 PUSH1 0x0 DUP4 ADD DUP5 PUSH2 0x563 JUMP JUMPDEST SWAP3 SWAP2 POP POP JUMP INVALID LOG2 PUSH5 0x6970667358 0x22 SLT KECCAK256 SUB PUSH18 0x63759BA936D2D5E08F212D6A7EA9235A9AC1 0xEB SWAP12 PUSH28 0x6CA1931CF53A8893D664736F6C634300080D00330000000000000000 "
				},
				"gasEstimates": {
					"creation": {
						"codeDepositCost": "295000",
						"executionCost": "70959",
						"totalCost": "365959"
					},
					"external": {
						"deceased()": "2516",
						"familyWallets(uint256)": "5022",
						"fortune()": "2430",
						"getInheritance(address)": "2864",
						"inheritance(address)": "2858",
						"owner()": "2533",
						"setInheritance(address,uint256)": "73578"
					},
					"internal": {
						"payout()": "infinite"
					}
				},
				"methodIdentifiers": {
					"deceased()": "72faf2d9",
					"familyWallets(uint256)": "f2d3d001",
					"fortune()": "177de89c",
					"getInheritance(address)": "6eb4149c",
					"inheritance(address)": "8daad257",
					"owner()": "8da5cb5b",
					"setInheritance(address,uint256)": "88d51594"
				}
			},
			"userdoc": {
				"kind": "user",
				"methods": {},
				"version": 1
			}
		}
	}
}