{
  "contractName": "DecentralBank",
  "abi": [
    {
      "inputs": [
        {
          "internalType": "contract RWD",
          "name": "_rwd",
          "type": "address"
        },
        {
          "internalType": "contract Tether",
          "name": "_tether",
          "type": "address"
        }
      ],
      "stateMutability": "nonpayable",
      "type": "constructor"
    },
    {
      "inputs": [
        {
          "internalType": "address",
          "name": "",
          "type": "address"
        }
      ],
      "name": "StakingBalances",
      "outputs": [
        {
          "internalType": "uint256",
          "name": "",
          "type": "uint256"
        }
      ],
      "stateMutability": "view",
      "type": "function",
      "constant": true
    },
    {
      "inputs": [
        {
          "internalType": "address",
          "name": "",
          "type": "address"
        }
      ],
      "name": "hasStaked",
      "outputs": [
        {
          "internalType": "bool",
          "name": "",
          "type": "bool"
        }
      ],
      "stateMutability": "view",
      "type": "function",
      "constant": true
    },
    {
      "inputs": [
        {
          "internalType": "address",
          "name": "",
          "type": "address"
        }
      ],
      "name": "isStaked",
      "outputs": [
        {
          "internalType": "bool",
          "name": "",
          "type": "bool"
        }
      ],
      "stateMutability": "view",
      "type": "function",
      "constant": true
    },
    {
      "inputs": [],
      "name": "name",
      "outputs": [
        {
          "internalType": "string",
          "name": "",
          "type": "string"
        }
      ],
      "stateMutability": "view",
      "type": "function",
      "constant": true
    },
    {
      "inputs": [],
      "name": "owner",
      "outputs": [
        {
          "internalType": "address",
          "name": "",
          "type": "address"
        }
      ],
      "stateMutability": "view",
      "type": "function",
      "constant": true
    },
    {
      "inputs": [],
      "name": "rwd",
      "outputs": [
        {
          "internalType": "contract RWD",
          "name": "",
          "type": "address"
        }
      ],
      "stateMutability": "view",
      "type": "function",
      "constant": true
    },
    {
      "inputs": [
        {
          "internalType": "uint256",
          "name": "",
          "type": "uint256"
        }
      ],
      "name": "stakers",
      "outputs": [
        {
          "internalType": "address",
          "name": "",
          "type": "address"
        }
      ],
      "stateMutability": "view",
      "type": "function",
      "constant": true
    },
    {
      "inputs": [],
      "name": "tether",
      "outputs": [
        {
          "internalType": "contract Tether",
          "name": "",
          "type": "address"
        }
      ],
      "stateMutability": "view",
      "type": "function",
      "constant": true
    },
    {
      "inputs": [
        {
          "internalType": "uint256",
          "name": "amount",
          "type": "uint256"
        }
      ],
      "name": "depositTokens",
      "outputs": [],
      "stateMutability": "nonpayable",
      "type": "function"
    },
    {
      "inputs": [],
      "name": "issueTokens",
      "outputs": [],
      "stateMutability": "nonpayable",
      "type": "function"
    },
    {
      "inputs": [],
      "name": "unstakeTokens",
      "outputs": [],
      "stateMutability": "nonpayable",
      "type": "function"
    }
  ],
  "bytecode": "0x60806040526040518060400160405280600e81526020017f446563656e7472616c2042616e6b000000000000000000000000000000000000815250600090805190602001906200005192919062000150565b503480156200005f57600080fd5b5060405162001794380380620017948339818101604052810190620000859190620002c3565b81600260006101000a81548173ffffffffffffffffffffffffffffffffffffffff021916908373ffffffffffffffffffffffffffffffffffffffff16021790555080600360006101000a81548173ffffffffffffffffffffffffffffffffffffffff021916908373ffffffffffffffffffffffffffffffffffffffff16021790555033600160006101000a81548173ffffffffffffffffffffffffffffffffffffffff021916908373ffffffffffffffffffffffffffffffffffffffff16021790555050506200036e565b8280546200015e9062000339565b90600052602060002090601f016020900481019282620001825760008555620001ce565b82601f106200019d57805160ff1916838001178555620001ce565b82800160010185558215620001ce579182015b82811115620001cd578251825591602001919060010190620001b0565b5b509050620001dd9190620001e1565b5090565b5b80821115620001fc576000816000905550600101620001e2565b5090565b600080fd5b600073ffffffffffffffffffffffffffffffffffffffff82169050919050565b6000620002328262000205565b9050919050565b6000620002468262000225565b9050919050565b620002588162000239565b81146200026457600080fd5b50565b60008151905062000278816200024d565b92915050565b60006200028b8262000225565b9050919050565b6200029d816200027e565b8114620002a957600080fd5b50565b600081519050620002bd8162000292565b92915050565b60008060408385031215620002dd57620002dc62000200565b5b6000620002ed8582860162000267565b92505060206200030085828601620002ac565b9150509250929050565b7f4e487b7100000000000000000000000000000000000000000000000000000000600052602260045260246000fd5b600060028204905060018216806200035257607f821691505b6020821081036200036857620003676200030a565b5b50919050565b611416806200037e6000396000f3fe608060405234801561001057600080fd5b50600436106100a95760003560e01c80636177fd18116100715780636177fd18146101425780638da5cb5b14610172578063a5ce413b14610190578063c93c8f341461019a578063dd49756e146101ca578063fd5e6dd1146101e6576100a9565b806306fdde03146100ae5780631a8972d3146100cc578063376aa972146100ea5780635efc071a1461011a57806360ab585214610138575b600080fd5b6100b6610216565b6040516100c39190610d1a565b60405180910390f35b6100d46102a4565b6040516100e19190610dbb565b60405180910390f35b61010460048036038101906100ff9190610e19565b6102ca565b6040516101119190610e5f565b60405180910390f35b6101226102e2565b60405161012f9190610e9b565b60405180910390f35b610140610308565b005b61015c60048036038101906101579190610e19565b61062a565b6040516101699190610ed1565b60405180910390f35b61017a61064a565b6040516101879190610efb565b60405180910390f35b610198610670565b005b6101b460048036038101906101af9190610e19565b610946565b6040516101c19190610ed1565b60405180910390f35b6101e460048036038101906101df9190610f42565b610966565b005b61020060048036038101906101fb9190610f42565b610c42565b60405161020d9190610efb565b60405180910390f35b6000805461022390610f9e565b80601f016020809104026020016040519081016040528092919081815260200182805461024f90610f9e565b801561029c5780601f106102715761010080835404028352916020019161029c565b820191906000526020600020905b81548152906001019060200180831161027f57829003601f168201915b505050505081565b600260009054906101000a900473ffffffffffffffffffffffffffffffffffffffff1681565b60056020528060005260406000206000915090505481565b600360009054906101000a900473ffffffffffffffffffffffffffffffffffffffff1681565b600160009054906101000a900473ffffffffffffffffffffffffffffffffffffffff1673ffffffffffffffffffffffffffffffffffffffff163373ffffffffffffffffffffffffffffffffffffffff1614610398576040517f08c379a000000000000000000000000000000000000000000000000000000000815260040161038f9061101b565b60405180910390fd5b60005b600480549050811015610627576000600482815481106103be576103bd61103b565b5b9060005260206000200160009054906101000a900473ffffffffffffffffffffffffffffffffffffffff16905060006009600560008473ffffffffffffffffffffffffffffffffffffffff1673ffffffffffffffffffffffffffffffffffffffff1681526020019081526020016000205461043991906110c8565b9050600081111561061257600260009054906101000a900473ffffffffffffffffffffffffffffffffffffffff1673ffffffffffffffffffffffffffffffffffffffff1663a9059cbb83836040518363ffffffff1660e01b81526004016104a19291906110f9565b6020604051808303816000875af11580156104c0573d6000803e3d6000fd5b505050506040513d601f19601f820116820180604052508101906104e4919061114e565b50600060066000600486815481106104ff576104fe61103b565b5b9060005260206000200160009054906101000a900473ffffffffffffffffffffffffffffffffffffffff1673ffffffffffffffffffffffffffffffffffffffff1673ffffffffffffffffffffffffffffffffffffffff16815260200190815260200160002060006101000a81548160ff021916908315150217905550600060076000600486815481106105955761059461103b565b5b9060005260206000200160009054906101000a900473ffffffffffffffffffffffffffffffffffffffff1673ffffffffffffffffffffffffffffffffffffffff1673ffffffffffffffffffffffffffffffffffffffff16815260200190815260200160002060006101000a81548160ff0219169083151502179055505b5050808061061f9061117b565b91505061039b565b50565b60076020528060005260406000206000915054906101000a900460ff1681565b600160009054906101000a900473ffffffffffffffffffffffffffffffffffffffff1681565b6000600560003373ffffffffffffffffffffffffffffffffffffffff1673ffffffffffffffffffffffffffffffffffffffff168152602001908152602001600020549050600081116106f7576040517f08c379a00000000000000000000000000000000000000000000000000000000081526004016106ee9061120f565b60405180910390fd5b600660003373ffffffffffffffffffffffffffffffffffffffff1673ffffffffffffffffffffffffffffffffffffffff16815260200190815260200160002060009054906101000a900460ff16610783576040517f08c379a000000000000000000000000000000000000000000000000000000000815260040161077a906112a1565b60405180910390fd5b80600560003373ffffffffffffffffffffffffffffffffffffffff1673ffffffffffffffffffffffffffffffffffffffff168152602001908152602001600020541015610805576040517f08c379a00000000000000000000000000000000000000000000000000000000081526004016107fc90611333565b60405180910390fd5b600360009054906101000a900473ffffffffffffffffffffffffffffffffffffffff1673ffffffffffffffffffffffffffffffffffffffff1663a9059cbb33836040518363ffffffff1660e01b81526004016108629291906110f9565b6020604051808303816000875af1158015610881573d6000803e3d6000fd5b505050506040513d601f19601f820116820180604052508101906108a5919061114e565b506000600560003373ffffffffffffffffffffffffffffffffffffffff1673ffffffffffffffffffffffffffffffffffffffff168152602001908152602001600020819055506000600760003373ffffffffffffffffffffffffffffffffffffffff1673ffffffffffffffffffffffffffffffffffffffff16815260200190815260200160002060006101000a81548160ff02191690831515021790555050565b60066020528060005260406000206000915054906101000a900460ff1681565b600081116109a9576040517f08c379a00000000000000000000000000000000000000000000000000000000081526004016109a09061120f565b60405180910390fd5b600360009054906101000a900473ffffffffffffffffffffffffffffffffffffffff1673ffffffffffffffffffffffffffffffffffffffff166323b872dd3330846040518463ffffffff1660e01b8152600401610a0893929190611353565b6020604051808303816000875af1158015610a27573d6000803e3d6000fd5b505050506040513d601f19601f82011682018060405250810190610a4b919061114e565b5080600560003373ffffffffffffffffffffffffffffffffffffffff1673ffffffffffffffffffffffffffffffffffffffff16815260200190815260200160002054610a97919061138a565b600560003373ffffffffffffffffffffffffffffffffffffffff1673ffffffffffffffffffffffffffffffffffffffff16815260200190815260200160002081905550600660003373ffffffffffffffffffffffffffffffffffffffff1673ffffffffffffffffffffffffffffffffffffffff16815260200190815260200160002060009054906101000a900460ff16610b8f576004339080600181540180825580915050600190039060005260206000200160009091909190916101000a81548173ffffffffffffffffffffffffffffffffffffffff021916908373ffffffffffffffffffffffffffffffffffffffff1602179055505b6001600660003373ffffffffffffffffffffffffffffffffffffffff1673ffffffffffffffffffffffffffffffffffffffff16815260200190815260200160002060006101000a81548160ff0219169083151502179055506001600760003373ffffffffffffffffffffffffffffffffffffffff1673ffffffffffffffffffffffffffffffffffffffff16815260200190815260200160002060006101000a81548160ff02191690831515021790555050565b60048181548110610c5257600080fd5b906000526020600020016000915054906101000a900473ffffffffffffffffffffffffffffffffffffffff1681565b600081519050919050565b600082825260208201905092915050565b60005b83811015610cbb578082015181840152602081019050610ca0565b83811115610cca576000848401525b50505050565b6000601f19601f8301169050919050565b6000610cec82610c81565b610cf68185610c8c565b9350610d06818560208601610c9d565b610d0f81610cd0565b840191505092915050565b60006020820190508181036000830152610d348184610ce1565b905092915050565b600073ffffffffffffffffffffffffffffffffffffffff82169050919050565b6000819050919050565b6000610d81610d7c610d7784610d3c565b610d5c565b610d3c565b9050919050565b6000610d9382610d66565b9050919050565b6000610da582610d88565b9050919050565b610db581610d9a565b82525050565b6000602082019050610dd06000830184610dac565b92915050565b600080fd5b6000610de682610d3c565b9050919050565b610df681610ddb565b8114610e0157600080fd5b50565b600081359050610e1381610ded565b92915050565b600060208284031215610e2f57610e2e610dd6565b5b6000610e3d84828501610e04565b91505092915050565b6000819050919050565b610e5981610e46565b82525050565b6000602082019050610e746000830184610e50565b92915050565b6000610e8582610d88565b9050919050565b610e9581610e7a565b82525050565b6000602082019050610eb06000830184610e8c565b92915050565b60008115159050919050565b610ecb81610eb6565b82525050565b6000602082019050610ee66000830184610ec2565b92915050565b610ef581610ddb565b82525050565b6000602082019050610f106000830184610eec565b92915050565b610f1f81610e46565b8114610f2a57600080fd5b50565b600081359050610f3c81610f16565b92915050565b600060208284031215610f5857610f57610dd6565b5b6000610f6684828501610f2d565b91505092915050565b7f4e487b7100000000000000000000000000000000000000000000000000000000600052602260045260246000fd5b60006002820490506001821680610fb657607f821691505b602082108103610fc957610fc8610f6f565b5b50919050565b7f4f6e6c7920746865206f776e65722063616e20697373756520746f6b656e7300600082015250565b6000611005601f83610c8c565b915061101082610fcf565b602082019050919050565b6000602082019050818103600083015261103481610ff8565b9050919050565b7f4e487b7100000000000000000000000000000000000000000000000000000000600052603260045260246000fd5b7f4e487b7100000000000000000000000000000000000000000000000000000000600052601260045260246000fd5b7f4e487b7100000000000000000000000000000000000000000000000000000000600052601160045260246000fd5b60006110d382610e46565b91506110de83610e46565b9250826110ee576110ed61106a565b5b828204905092915050565b600060408201905061110e6000830185610eec565b61111b6020830184610e50565b9392505050565b61112b81610eb6565b811461113657600080fd5b50565b60008151905061114881611122565b92915050565b60006020828403121561116457611163610dd6565b5b600061117284828501611139565b91505092915050565b600061118682610e46565b91507fffffffffffffffffffffffffffffffffffffffffffffffffffffffffffffffff82036111b8576111b7611099565b5b600182019050919050565b7f416d6f756e74206d7573742062652067726561746572207468616e2030000000600082015250565b60006111f9601d83610c8c565b9150611204826111c3565b602082019050919050565b60006020820190508181036000830152611228816111ec565b9050919050565b7f596f75206d757374207374616b6520746f6b656e73206265666f726520796f7560008201527f2063616e20756e7374616b65207468656d000000000000000000000000000000602082015250565b600061128b603183610c8c565b91506112968261122f565b604082019050919050565b600060208201905081810360008301526112ba8161127e565b9050919050565b7f596f7520646f206e6f74206861766520656e6f75676820746f6b656e7320746f60008201527f20756e7374616b65000000000000000000000000000000000000000000000000602082015250565b600061131d602883610c8c565b9150611328826112c1565b604082019050919050565b6000602082019050818103600083015261134c81611310565b9050919050565b60006060820190506113686000830186610eec565b6113756020830185610eec565b6113826040830184610e50565b949350505050565b600061139582610e46565b91506113a083610e46565b9250827fffffffffffffffffffffffffffffffffffffffffffffffffffffffffffffffff038211156113d5576113d4611099565b5b82820190509291505056fea26469706673582212205a5668a1464fc53ea005a538423aa09cd4c8018335ed8d3e8cddca9b81e9033d64736f6c634300080d0033",
  "immutableReferences": {},
  "source": "// SPDX-License-Identifier: MIT\r\npragma solidity >=0.4.22 <0.9.0;\r\n\r\nimport \"./RWD.sol\";\r\nimport \"./Tether.sol\";\r\n\r\ncontract DecentralBank {\r\n    string public name = \"Decentral Bank\";\r\n    address public owner;\r\n    RWD public rwd;\r\n    Tether public tether;\r\n\r\n    address[] public stakers;\r\n\r\n    mapping(address => uint256) public StakingBalances;\r\n    mapping(address => bool) public hasStaked;\r\n    mapping(address => bool) public isStaked;\r\n\r\n    constructor(RWD _rwd, Tether _tether) {\r\n        rwd = _rwd;\r\n        tether = _tether;\r\n        owner = msg.sender;\r\n    }\r\n\r\n    function depositTokens(uint256 amount) public {\r\n        require(amount > 0, \"Amount must be greater than 0\");\r\n        //transfer tether tokens to this contract address for staking\r\n        tether.transferFrom(msg.sender, address(this), amount);\r\n\r\n        //update staking balances\r\n        StakingBalances[msg.sender] = StakingBalances[msg.sender] + amount;\r\n        if (!hasStaked[msg.sender]) {\r\n            // hasStaked[msg.sender] = true;\r\n            stakers.push(msg.sender);\r\n        }\r\n        hasStaked[msg.sender] = true;\r\n        isStaked[msg.sender] = true;\r\n    }\r\n\r\n    //issue rewards to stakers\r\n    function issueTokens() public {\r\n        //require the owner to issue tokens only\r\n        require(msg.sender == owner, \"Only the owner can issue tokens\");\r\n        //iterate through stakers\r\n        for (uint256 i = 0; i < stakers.length; i++) {\r\n            address recipient = stakers[i];\r\n            uint256 balance = StakingBalances[recipient] / 9;\r\n            //check if staker has staked tokens\r\n            if (balance > 0) {\r\n                //issue tokens to staker\r\n                rwd.transfer(recipient, balance);\r\n                //remove staker from staking\r\n                hasStaked[stakers[i]] = false;\r\n                isStaked[stakers[i]] = false;\r\n                //remove staker from staking array\r\n                // stakers.remove(i);\r\n            }\r\n        }\r\n    }\r\n\r\n    //unstake tokens\r\n    function unstakeTokens() public {\r\n        uint256 amount = StakingBalances[msg.sender];\r\n        require(amount > 0, \"Amount must be greater than 0\");\r\n        //check if staker has staked tokens\r\n        require(\r\n            hasStaked[msg.sender],\r\n            \"You must stake tokens before you can unstake them\"\r\n        );\r\n        //check if staker has enough tokens to unstake\r\n        require(\r\n            StakingBalances[msg.sender] >= amount,\r\n            \"You do not have enough tokens to unstake\"\r\n        );\r\n\r\n        //transfer the tokens to the specified contract address from our bank\r\n        tether.transfer(msg.sender, amount);\r\n        //reset staking balances\r\n        StakingBalances[msg.sender] = 0;\r\n\r\n        //update staking status\r\n        // hasStaked[msg.sender] = false;\r\n\r\n        isStaked[msg.sender] = false; \r\n        // if(StakingBalances[msg.sender] == 0){\r\n        //     hasStaked[msg.sender] = false;\r\n        //     isStaked[msg.sender] = false;\r\n        // }\r\n    }\r\n}\r\n",
  "sourcePath": "D:\\Blockchain_Course\\Staking Yielding Reward\\src\\contracts\\DecentralBank.sol",
  "compiler": {
    "name": "solc",
    "version": "0.8.13+commit.abaa5c0e.Emscripten.clang"
  },
  "schemaVersion": "3.4.4",
  "updatedAt": "2022-04-13T07:51:41.193Z",
  "networkType": "ethereum",
  "devdoc": {
    "kind": "dev",
    "methods": {},
    "version": 1
  },
  "userdoc": {
    "kind": "user",
    "methods": {},
    "version": 1
  }
}